:0A0000008316FF2390008312FD2BEE
:100734008312851D080005108510051185169A2B56
:10074400073083129900831605108510051185154D
:10075400051285129A23B023C623AC2B83120514E9
:100764008514051185120B30A2002630A1006630D5
:10077400A000A00BBB2BA10BBB2BA20BBB2BC22B32
:100784008312851D0800C22B83128510051585165A
:10079400A301A4012408803ADF0080305F02031D16
:1007A400D52B0F3023020318080006308312A20051
:1007B4001330A100B130A000A00BDE2BA10BDE2B67
:1007C400A20BDE2BE52B831285120630A200133018
:1007D400A100B130A000A00BED2BA10BED2BA20BBF
:1007E400ED2BF42B831285160130A3070318A40AFA
:0A07F4000030A407CC2B8301A22BD8
:02400E00D431AB
:00000001FF
